:1000000014C024C023C022C021C020C01FC01EC0F5
:100010001DC01CC01BC01AC019C018C017C016C014
:1000200015C014C013C012C011C011241FBECFEDE3
:10003000CDBF10E0A0E6B0E0EEE4F4E002C0059031
:100040000D92AA36B107D9F7B8D0FFC1D9CF8D9A92
:10005000959808958D98959A08958C9A94980895F6
:100060008C98949A089500000000000000000000A1
:1000700000000000000008951F93CF93DF93182F16
:10008000EFDFD8E0C0E0CC0FE5DFEDDF8499C160A1
:10009000DEDFE9DFD150B9F7112361F0DEDFE3DF06
:1000A000D9DFE1DFD4DFDFDFDBDF8C2FDF91CF9122
:1000B0001F910895D5DFF3CFCF93DF93D82FC8E0FA
:1000C000D7FF17C0CDDFCFDFC5DFCDDFC0DFCBDF90
:1000D000DD0FC150A9F7C4DFC6DFBCDFC4DFC0B38A
:1000E000B6DFC1DFC295C17081E08C27DF91CF916F
:1000F0000895B3DFE8CFB1DFB6DFACDFB4DFB0DF48
:10010000B2CFAEDFA7DFAFDFA8DFADDFA0DFABCFC1
:10011000CF93C82FF6DF8EE4CFDF8C2F8860CCDF43
:10012000CF91E9CFCF93DF93C82FEBDF80E8C4DF17
:100130008C2FC2DFE0DFE5DF81E8BEDF81E09CDFFE
:10014000D82F80E099DFC82FD6DFCE01DF91CF9185
:100150000895CF93C82FDCDF8C2F8460D9DF84E033
:100160008A95F1F78C2F8B7FD3DF88EC8A95F1F796
:10017000CF910895CF93DF93C82FD62F807F862B02
:10018000E8DF8C2F8295807F8D2BDF91CF91E1CF9F
:10019000CF93DF93EC018991882319F061E0EADFC6
:1001A000FACFDF91CF910895E82FF0E0E05AFF4FAA
:1001B0008081860F60E08068DDCFCF93DF93CDB77D
:1001C000DD27C850CDBFBC9AC4984ADF43DF80E02A
:1001D0009FDF2FEB84ED91E0215080409040E1F7CC
:1001E00000C0000080E3B5DF87E99AE30197F1F7EB
:1001F00000C0000080E3ADDF81EC91E00197F1F7F2
:1002000000C0000080E3A5DF81EC91E00197F1F7E9
:1002100000C0000080E29DDF81EC91E00197F1F7E2
:1002200000C0000060E088E2A5DF60E08CE0A2DFB3
:1002300060E081E09FDF8FE697E10197F1F700C072
:10024000000060E086E096DF5CDF80E835DF85E077
:1002500033DF80E231DF80E02FDF4DDF52DF80E8E7
:100260002BDF80E029DF81E027DF8FE925DF43DF17
:1002700040E2342E50E1652E57E2752E68EEA62E30
:1002800063E0B62E0AE010E07EE2572EE4E68E2E02
:10029000912CF0E14F2E82E045DF23E09695879583
:1002A0002A95E1F77C01EE0CFF1CEE0CFF1C84E0AC
:1002B00039DF6C0190E1E91697E2F90608F494C081
:1002C000C701B3019BD0605D6983C701B50196D0BA
:1002D000CB01B80193D0805D8A835B82C701B401F2
:1002E0008DD0CB01B8018AD0805D8C83C701B80165
:1002F00085D0CB01B80182D0805D8D831E8260E005
:1003000080E052DFCE01019643DF66E080E04CDF03
:1003100084E690E03DDF28EEC21623E0D2060CF41E
:1003200065C0C601B5017ED0CB01B8017BD0805D30
:100330008983E1E0FF24F394FE0E81E090E08C0FCE
:100340009D1F8E0F911DFC01C601B4016BD0CB0126
:10035000B80168D0805D8083E1E0F0E0EC0FFD1F24
:10036000EF0DF11DC601B8015DD0282FCB01B801FA
:1003700059D0805D8083E1E0EF0D81E090E08C0F4B
:100380009D1F8E0F911DFC015082E2E0EF0D81E078
:1003900090E08C0F9D1F8E0F911DFC01205D20832E
:1003A000E3E0EF0D81E090E08C0F9D1F8E0F911D1B
:1003B000FC01108260E081E0F7DECE010196E8DE0C
:1003C00064E06F0D81E0F0DE86E690E0E1DE88B368
:1003D000842588BB9FE72FE482E191502040804034
:1003E000E1F700C0000057CF39826FCFF12C84E6CF
:1003F000C816D1040CF4B0CFE0E09CCFAA1BBB1B05
:1004000051E107C0AA1FBB1FA617B70710F0A61B14
:10041000B70B881F991F5A95A9F780959095BC0135
:10042000CD01089597FB072E16F4009406D077FDB2
:1004300008D0E4DF07FC05D03EF4909581959F4FEE
:0E0440000895709561957F4F0895F894FFCF51
:0A044E000040145456006D410000F8
:00000001FF
