:1000000014C02CC02BC02AC029C028C027C026C0BD
:1000100025C024C023C022C021C020C01FC01EC0D4
:100020001DC01CC01BC01AC019C011241FBECFEDBB
:10003000CDBF10E0A0E6B0E0ECECF6E002C0059029
:100040000D92AA39B107D9F720E0AAE9B0E001C0C2
:100050001D92AD39B207E1F70DD336C3D1CF000001
:1000600000000000000000000000000000000895F3
:100070008C98949A08958C9A949808958D98959A4E
:1000800008958D9A95980895F3DFF8DFE8DFF3DFA0
:10009000E6DFF7DFE4CFEFDFE2DFF0DFE0DFE8DF2E
:1000A000DECFCF93DF93D82FC8E0D7FF17C0E0DFB4
:1000B000D6DFE4DFD4DFE5DFD2DFDD0FC150A9F703
:1000C000D7DFCDDFDBDFCBDFC0B3DBDFC8DFC2953F
:1000D000C17081E08C27DF91CF910895CCDFE8CF0C
:1000E0001F93CF93DF93182FC3DFD8E0C0E0CC0F6E
:1000F000C5DFB5DF8499C160C4DFB1DFD150B9F786
:10010000112361F0B8DFABDFB9DFA9DFBADFA7DF0A
:10011000AFDF8C2FDF91CF911F910895A9DFF3CF2F
:10012000CF93C82FB1DF8EE4BCDF8C2F8860B9DF9E
:10013000CF91B1CFCF93C82F8460F2DF84E08A954E
:10014000F1F78C2F8B7FECDF88EC8A95F1F7CF915C
:100150000895CF93C82FE4DF8C2FCF91EBCFCF93AF
:10016000DF93C82FD62F807F862BF3DF8C2F8295CD
:10017000807F8D2BDF91CF91ECCF60E0F0CF80E0DE
:10018000CFDF2FEB84ED91E0215080409040E1F7EC
:1001900000C0000080E3DDDF87E99AE30197F1F713
:1001A00000C0000080E3D5DF81EC91E00197F1F71A
:1001B00000C0000080E3CDDF81EC91E00197F1F712
:1001C00000C0000080E2C5DF81EC91E00197F1F70B
:1001D00000C0000088E2D1DF8CE0CFDF81E0CDDF1E
:1001E0008FE697E10197F1F700C0000086E0C5CFE8
:1001F000CF93DF9300D0CDB7DD27198290E49A83A7
:10020000811181E0FE01E80FF11D8181860F806878
:10021000CE5FCDBFDF91CF91B0CFCF93DF93EC0115
:100220008991882319F061E09ADFFACFDF91CF91AD
:1002300008950F931F93CF93DF93182FEB01042F93
:1002400023DF802F880F2DDF812F2BDF8D2F29DFDC
:100250008C2F27DFDF91CF911F910F911CCFCF9370
:10026000DF93D82FC62F10DF8C2F880F1ADF8D2F2A
:1002700018DF11DF09DF8C2F880F816012DF81E02A
:100280002FDFD82F80E02CDFC82F05DFCE01DF91D4
:10029000CF910895682F84E0E2CF682F82E0DFDFFE
:1002A00023E0969587952A95E1F7880F991F880F87
:1002B000991F0895CF93C82F482F60E070E185E023
:1002C000B8DF4C2F6FED71E080E0CF91B2CFCF93CC
:1002D000C82FDADE8C2F880FE4DEC82FDCDE8C2FEF
:1002E000CF9108950F931F93CF93DF93CDB7DD2761
:1002F000C850CDBF182F062F9A0160E2403187E227
:10030000580728F0CA0160E177E2B7D1605D6983E0
:10031000C90168EE73E0B1D1CB01EAE0F0E0BF01C2
:10032000ACD1805D8A838EE28B83C90164E670E084
:10033000A4D1CB01BF01A1D1805D8C83C901BF01D4
:100340009CD1CB01BF0199D1805D8D8380E28E83EA
:1003500086E58F831886602F812F4ADFCE010196B4
:100360005CDFC85FCDBFDF91CF911F910F910895E2
:10037000AF92BF92CF92DF92FF920F931F93CF93D2
:10038000DF93CDB7DD27C950CDBFF82E362F8A01B8
:1003900057FF4AC08DE28983662339F0CA01815F25
:1003A000984D8832934208F4315011950195110906
:1003B000E1E0003187E218070CF4A6C0CC24C39416
:1003C000D12CCC0EDD1ECE0ED11CC80160E177E22F
:1003D00068D1605DD6016C93EF5FCC24C394D12CBF
:1003E000CC0EDD1ECE0ED11CC80168EE73E059D1D3
:1003F000CB016AE070E055D1805DD6018C93EF5F50
:10040000CC24C394D12CCC0EDD1ECE0ED11CC80141
:1004100064E670E046D1CB016AE070E042D1805DD5
:10042000D6018C93EF5F07C0443651050CF06AC0CB
:1004300080E28983E1E021E02E0FCC24C394D12C0B
:10044000CC0EDD1ECE0ED11C9AE0A92EB12CC80117
:10045000B50127D1482FCB01B50123D1805DD6014D
:100460008C9300311742A4F4A1E0B0E0AC0FBD1FA3
:10047000A20FB11D8EE28C9323E02E0FEE5F81E080
:1004800090E08C0F9D1F8E0F911DFC01405D4083FD
:10049000253048F4E1E0F0E0EC0FFD1FE20FF11D24
:1004A00080E280832F5FE1E0F0E0EC0FFD1FE20FC0
:1004B000F11D8DE68083E1E0E20FA1E0B0E0AC0F3A
:1004C000BD1FAE0FB11DFD0181E48083E2E0E20FAC
:1004D00081E090E08C0F9D1F8E0F911DFC0110821A
:1004E000632F8F2D85DECE01019697DEC75FCDBFCE
:1004F000DF91CF911F910F91FF90DF90CF90BF9030
:10050000AF900895E0E055CF083EB3E01B070CF034
:1005100064CF043611050CF48ECF72CFBC9AC49808
:10052000B89AC098B998C19AA3DDA8DD60E080E0D0
:100530005FDE80E690E071DE60E081E059DE81E719
:1005400090E06BDE2FEF8DE399E4215080409040E6
:10055000E1F700C0000008951F93CF93DF9387E277
:10056000B6DE182F80E4B3DED82F81E4B0DEC82FCA
:10057000112309F456C080919C00811104C0FFDD55
:1005800081E080939C0067E080E032DE8EE690E0C0
:1005900044DE67E081E02CDE8EE690E03EDEDD2387
:1005A00009F442C080919B00811105C080E482DE85
:1005B00081E080939B0080E470DEAC0160E080E02D
:1005C00091DE80E467DEAC0160E081E0D1DECC2327
:1005D000D1F180919A00811105C081E46BDE81E048
:1005E00080939A0081E459DEAC0169E080E07ADE14
:1005F00081E450DEAC0169E081E0BADE88B390E1CD
:10060000892788BBB1992EC02FE384EC9AE0215052
:1006100080409040E1F700C00000DF91CF911F9132
:10062000089510929C00BBCF10929B0060E080E088
:10063000DFDD82E890E0F1DD60E081E0D9DD8AE88D
:1006400090E0EBDDC4CF10929A0069E080E0D0DD4D
:1006500082E990E0E2DD69E081E0CADD8AE890E0CD
:10066000DCDDCCCF2FE581E393E221508040904048
:10067000E1F7D1CF53DF70DFFECFAA1BBB1B51E1E7
:1006800007C0AA1FBB1FA617B70710F0A61BB70B02
:10069000881F991F5A95A9F780959095BC01CD01A7
:1006A000089597FB072E16F4009406D077FD08D026
:1006B000E4DF07FC05D03EF4909581959F4F0895A7
:0C06C000709561957F4F0895F894FFCF6E
:1006CC0020204475616C204368616E6E656C20203F
:1006DC0000566F6C742E437572722053656E736F77
:1006EC00720053656E736F723100756E706C756746
:0A06FC00200053656E736F72320028
:00000001FF
